:100000000C9462000C948A000C948A000C948A0070
:100010000C948A000C948A000C948A000C948A0038
:100020000C948A000C948A000C948A000C9481032E
:100030000C948A000C948A000C948A000C948A0018
:100040000C9437030C948A000C9405030C94DF0283
:100050000C948A000C948A000C948A000C948A00F8
:100060000C948A000C948A000000000024002700F1
:100070002A0000000000250028002B0000000008D6
:10008000000201000003040700000000000000005F
:1000900000000000230026002900040404040404D6
:1000A0000404020202020202030303030303010227
:1000B00004081020408001020408102001020408F6
:1000C0001020820411241FBECFEFD8E0DEBFCDBFC9
:1000D00011E0A0E0B1E0E4E7FEE002C005900D927F
:1000E000AC31B107D9F721E0ACE1B1E001C01D921C
:1000F000AF3EB207E1F710E0C2E6D0E004C02197BE
:10010000FE010E943207C136D107C9F70E94DF0401
:100110000C9438070C9400008F929F92AF92BF927C
:10012000FF920F931F93CF93DF93F090EC012BE09E
:100130002F1508F44CC02091EE0108E512E0021BD7
:10014000110927FD1395000F111F000F111F20919A
:10015000ED01C8E8D0E0C21BD10927FDD395CC0F33
:10016000DD1FCC0FDD1F4E010D2E000CAA08BB08B1
:100170009801012E000C440B550B281939094A0926
:100180005B09DC010E94ED0624EB30E040E050E02A
:100190000E94C306820E931EA41EB51E8C169D06D9
:1001A0002CF0E801801691060CF4E4012297CC0FA4
:1001B000DD1F2FB7F8948F2D90E0FC01EE0FFF1F8D
:1001C000E80FF91FE953FE4FD283C1832FBFDF91A0
:1001D000CF911F910F91FF90BF90AF909F908F9004
:1001E0000895AF92BF92CF92DF92EF92FF920F935A
:1001F0001F93CF93DF936C017B018B01040F151FBD
:10020000EB015E01AE18BF08C017D10759F0699124
:10021000D601ED91FC910190F081E02DC601099588
:10022000892B79F7C501DF91CF911F910F91FF9035
:10023000EF90DF90CF90BF90AF900895FC01538D69
:10024000448D252F30E0842F90E0821B930B5417B0
:1002500010F0CF96089501970895FC01918D828D3D
:10026000981761F0A28DAE0FBF2FB11D5D968C91D6
:10027000928D9F5F9F73928F90E008958FEF9FEF15
:100280000895FC01918D828D981731F0828DE80FD1
:10029000F11D858D90E008958FEF9FEF0895FC018B
:1002A000918D228D892F90E0805C9F4F821B910958
:1002B0008F73992708958AE291E00E944F0121E00F
:1002C000892B09F420E0822F089580E090E0892BAB
:1002D00029F00E945B0181110C9400000895FC013B
:1002E000A48DA80FB92FB11DA35ABF4F2C91848D97
:1002F00090E001968F739927848FA689B7892C93F4
:10030000A089B1898C91837080648C93938D848D46
:10031000981306C00288F389E02D80818F7D808349
:100320000895EF92FF920F931F93CF93DF93EC0109
:1003300081E0888F9B8D8C8D98131AC0E889F9898C
:10034000808185FF15C09FB7F894EE89FF8960838F
:10035000E889F98980818370806480839FBF81E010
:1003600090E0DF91CF911F910F91FF90EF90089552
:10037000F62E0B8D10E00F5F1F4F0F731127E02E2D
:100380008C8D8E110CC00FB607FCFACFE889F98965
:10039000808185FFF5CFCE010E946F01F1CFEB8DFB
:1003A000EC0FFD2FF11DE35AFF4FF0829FB7F89439
:1003B0000B8FEA89FB8980818062CFCFCF93DF9357
:1003C000EC01888D8823B9F0AA89BB89E889F9896D
:1003D0008C9185FD03C0808186FD0DC00FB607FCA2
:1003E000F7CF8C9185FFF2CF808185FFEDCFCE01D5
:1003F0000E946F01E9CFDF91CF91089590E0FC0159
:10040000E458FF4F2491FC01E255FF4F3491FC0169
:10041000E656FF4FE491EE23C9F0222339F0233052
:1004200001F1A8F4213019F1223029F1F0E0EE0FAA
:10043000FF1FEE58FF4FA591B4918FB7F894EC9140
:10044000611126C030953E233C938FBF089527301D
:10045000A9F02830C9F0243049F7809180008F7DC1
:1004600003C0809180008F7780938000DFCF84B5B8
:100470008F7784BDDBCF84B58F7DFBCF8091B000BB
:100480008F778093B000D2CF8091B0008F7DF9CF6D
:100490003E2BDACFCF93DF9390E0FC01E255FF4F84
:1004A000249186569F4FFC0184918823D1F090E0DF
:1004B000880F991FFC01E859FF4FA591B491FC01E9
:1004C000EE58FF4FC591D49161110EC09FB7F894BB
:1004D0008C91E22FE0958E238C932881E223E88390
:1004E0009FBFDF91CF9108958FB7F894EC91E22BE5
:1004F000EC938FBFF6CF3FB7F89480912201909193
:100500002301A0912401B091250126B5A89B05C027
:100510002F3F19F00196A11DB11D3FBFBA2FA92F82
:10052000982F8827BC01CD01620F711D811D911D7F
:1005300042E0660F771F881F991F4A95D1F70895EB
:100540008F929F92AF92BF92CF92DF92EF92FF92E3
:100550004B015C010E947B026B017C010E947B02CB
:100560006C197D098E099F09683E734081059105CC
:10057000A8F321E0821A9108A108B10888EEC80EFC
:1005800083E0D81EE11CF11C81149104A104B10484
:1005900029F7FF90EF90DF90CF90BF90AF909F90A2
:1005A0008F900895FC0101900020E9F73197AF0189
:1005B000481B590BBC018AE291E00C94F1001F9298
:1005C0000F920FB60F9211242F933F934F935F9387
:1005D0006F937F938F939F93AF93BF93EF93FF930B
:1005E0008AE291E00E946F01FF91EF91BF91AF917C
:1005F0009F918F917F916F915F914F913F912F913B
:100600000F900FBE0F901F9018951F920F920FB66C
:100610000F9211242F938F939F93EF93FF93E09169
:100620003A01F0913B018081E0914001F09141015C
:1006300082FD1BC09081809143018F5F8F73209159
:100640004401821741F0E0914301F0E0E65DFE4F86
:10065000958F80934301FF91EF919F918F912F91FF
:100660000F900FBE0F901F9018958081F4CF1F92AE
:100670000F920FB60F9211242F933F938F939F9356
:10068000AF93BF9380911E0190911F01A091200113
:10069000B091210130911D0123E0230F2D3758F532
:1006A0000196A11DB11D20931D0180931E01909301
:1006B0001F01A0932001B09321018091220190910C
:1006C0002301A0912401B09125010196A11DB11D26
:1006D0008093220190932301A0932401B0932501DC
:1006E000BF91AF919F918F913F912F910F900FBE2E
:1006F0000F901F90189526E8230F0296A11DB11D9B
:10070000D2CF1F920F920FB60F9211242F933F93C7
:100710004F935F936F937F938F939F93AF93BF9309
:10072000CF93DF93EF93FF9380911C01C091EB0176
:10073000D0E087FF24C01092850010928400809141
:100740001C018F5F80931C0180911C01082E000CFE
:10075000990B8C179D0724F480911C018C30C4F1F7
:100760008091840090918500049680349C4908F41F
:100770007AC08091840090918500049676C0809123
:100780001C01082E000C990B8C179D07C4F6E091F4
:100790001C018E2FEE0F990BFC01EE0FFF1FE80FCF
:1007A000F91FE953FE4F808186FFC9CFE0911C01FC
:1007B0008E2FEE0F990BFC01EE0FFF1FE80FF91FB4
:1007C000E953FE4F808160E08F730E94FE01B7CF36
:1007D0002091840030918500E0911C018E2FEE0F56
:1007E000990BFC01EE0FFF1FE80FF91FE953FE4FB5
:1007F00081819281820F931F90938900809388005A
:10080000E0911C018E2FEE0F990BFC01EE0FFF1FE4
:10081000E80FF91FE953FE4F808186FF11C0E09178
:100820001C018E2FEE0F990BFC01EE0FFF1FE80F3E
:10083000F91FE953FE4F808161E08F730E94FE0132
:10084000FF91EF91DF91CF91BF91AF919F918F91E8
:100850007F916F915F914F913F912F910F900FBEBC
:100860000F901F90189580E49CE9909389008093E5
:1008700088008FEF80931C01E3CFCF92DF92EF923D
:10088000FF920F931F93E82FF92F05C00150110914
:100890002109310961F1908196239417B9F305C0BC
:1008A000015011092109310911F190819623941306
:1008B000F7CFC12CD12CE12CF12C0AC08FEFC81A34
:1008C000D80AE80AF80A0C151D052E053F0579F02F
:1008D00080818623841791F36C2D7D2D8E2D9F2D85
:1008E0001F910F91FF90EF90DF90CF90089560E0FF
:1008F00070E080E090E01F910F91FF90EF90DF900B
:10090000CF90089510922D0110922C0188EE93E063
:10091000A0E0B0E080932E0190932F01A0933001CE
:10092000B093310184E091E090932B0180932A01F0
:1009300085EC90E0909337018093360184EC90E051
:10094000909339018093380180EC90E090933B01C3
:1009500080933A0181EC90E090933D0180933C01BB
:1009600082EC90E090933F0180933E0186EC90E012
:1009700090934101809340011092430110924401F1
:1009800010924501109246018091EB018C3098F451
:1009900091E0980F9093EB018093EC0190E0FC01C3
:1009A000EE0FFF1FE80FF91FE953FE4F88EB9BE0A6
:1009B0009283818308958FEF8093EC010895CF9304
:1009C000DF93CDB7DEB7A1970FB6F894DEBF0FBEA9
:1009D000CDBF789484B5826084BD84B5816084BDC8
:1009E00085B5826085BD85B5816085BD80916E00CD
:1009F000816080936E0010928100809181008260FE
:100A0000809381008091810081608093810080913A
:100A100080008160809380008091B1008460809329
:100A2000B1008091B00081608093B00080917A0025
:100A3000846080937A0080917A00826080937A004B
:100A400080917A00816080937A0080917A0080683A
:100A500080937A001092C100E0913A01F0913B013D
:100A600082E08083E0913601F09137011082E091BD
:100A70003801F09139018FEC808310924201E091AE
:100A80003E01F0913F0186E08083E0913C01F091CE
:100A90003D01808180618083E0913C01F0913D01C6
:100AA000808188608083E0913C01F0913D018081EC
:100AB00080688083E0913C01F0913D0180818F7DD1
:100AC00080838091EC018C3008F051C061E084E0BB
:100AD0000E944A028091EC01282F30E0F901EE0FCC
:100AE000FF1FE20FF31FE953FE4F9081907C94604B
:100AF00090831092ED011092EE012CE0622F0E9483
:100B00002607829FB001112430E020E0AB01420FA4
:100B1000531FFA01EE0FFF1FE40FF51FE953FE4FBD
:100B2000908196FD16C02F5F3F4F2C30310571F735
:100B300081110FC01092800082E08093810010929A
:100B4000850010928400B19A80916F00826080933A
:100B50006F00E091EC018E2F90E0FC01EE0FFF1F83
:100B6000E80FF91FE953FE4F80818064808390E095
:100B700080E00E948C0061E083E00E944A0260E015
:100B800082E00E944A0268EE73E080E090E00E94FA
:100B9000A00293E0292E312C2AE3822E912CA12C45
:100BA000B12C3AE0432E512C612C712C60E083E093
:100BB0000E94FE01C1010197F1F761E083E00E940C
:100BC000FE0183E290E00197F1F7E0EBF0E0649141
:100BD000ECE9F0E08491E82FF0E0EE0FFF1FE05722
:100BE000FF4F8591949100E412E42FE030E0462F0E
:100BF0000E943D04611571058105910529F06F5F23
:100C00007F4F8F4F9F4F9F70A50194010E94C30695
:100C10002093260130932701409328015093290106
:100C200082E191E00E94D202C0902601D09027017B
:100C3000E0902801F0902901F7FE86C06DE28AE27B
:100C400091E00E94910122273327A9012C193D0927
:100C50004E095F0919A2CE0181967C01CA01B90132
:100C6000A30192010E94F506605DF70162937F0186
:100C7000211531054105510589F7E114F10419F0F9
:100C8000C7010E94D20288E191E00E94D2028091C5
:100C9000260190912701A0912801B09129018E3160
:100CA0009105A105B1050CF065C084E190E00E94BA
:100CB0008C0062E370E080E090E00E94A0028EE190
:100CC00090E00E948C0062E370E080E090E00E947F
:100CD000A00288E290E00E948C0062E370E080E075
:100CE00090E00E94A00282E390E00E948C0062E308
:100CF00070E080E090E00E94A00280E590E00E9419
:100D00008C0062E370E080E090E00E94A0028EE63A
:100D100090E00E948C0068EB7BE080E090E00E9415
:100D2000A00264E670E080E090E00E94A00280E013
:100D300090E0892B09F43ACF0E945B01882309F4E3
:100D400035CF0E94000032CFA701960119A2CE0133
:100D500081967C01CA01B901A30192010E94F506A6
:100D6000605DF70162937F01211531054105510551
:100D700089F783CF4E97A105B10599F290E080E005
:100D80000E948C00CECF052E97FB1EF400940E948B
:100D9000DA0657FD07D00E94F50607FC03D04EF493
:100DA0000C94DA0650954095309521953F4F4F4F62
:100DB0005F4F089590958095709561957F4F8F4F07
:100DC0009F4F08950E941707A59F900DB49F900D07
:100DD000A49F800D911D11240895B7FF0C94E20685
:100DE0000E94E206821B930B0895A1E21A2EAA1B11
:100DF000BB1BFD010DC0AA1FBB1FEE1FFF1FA217CB
:100E0000B307E407F50720F0A21BB30BE40BF50BC7
:100E1000661F771F881F991F1A9469F76095709550
:100E2000809590959B01AC01BD01CF010895A29FD3
:100E3000B001B39FC001A39F700D811D1124911DAE
:100E4000B29F700D811D1124911D0895991B79E0A9
:100E500004C0991F961708F0961B881F7A95C9F74A
:100E600080950895EE0FFF1F0590F491E02D0994F1
:040E7000F894FFCF24
:100E7400000000009101F1001E01DE014F012D016F
:0C0E84004101446973203A000D0A00008F
:00000001FF
